:020000040000FA
:040000000128F92FAB
:1007E400083430343134003424001419FA2BFB2B30
:1007F400F62B16081F39031D002C012CF62B16149A
:10080400080024001419072C082C032C16081F397F
:10081400031D0D2C0E2C032C16150800F0002400CB
:100824001419152C162C112C16081F39031D1B2CFA
:100834001C2C112C70089100080042346F3474345D
:1008440074346C34653420346F3466342034623448
:100854006534653472342134003442346F34743472
:1008640074346C346534733420346F346634203417
:1008740062346534653472342134003420342034D5
:1008840020342034203420342034203420342034C4
:100894002034203420342034203420340034F10037
:1008A4008331F623843120003108843110248431CB
:1008B40071082000330484311024843184310324EA
:1008C40084310800F3000030200032180130F200B7
:1008D4007208F3047308FB398431512484310032E3
:1008E4007308043884315124843100327308FB398D
:1008F4008431512484314230890B7E2C003208002B
:1009040047346F34203474346F342034743468348E
:1009140065342034733474346F3472346534203461
:1009240061346E3464342034623475347934203460
:1009340073346F346D34653420346D346F347234F1
:10094400653400344E346F3420346D346F34723473
:100954006534203462346F34743474346C346534E4
:10096400733420346F34663420346234653465342F
:10097400723420346F346E34203474346834653403
:100984002034773461346C346C340034F500200046
:1009940032107508F0398431642484317508F40008
:1009A4000330F435FF3E031DD32C7435F039843104
:1009B4006424843175030319E02CE12CE72C023004
:1009C4007506031DE62CE72CEF2C0630F4003030BE
:1009D400890BEA2CF40BEA2C00320800283024009E
:1009E400950020002008A4002108A5002208A600E4
:1009F4002308A7000230A435A50DA60DA70D890B69
:100A0400FD2C2708F3002608F2002508F10024082D
:100A1400F0000030F7007A30F6001230F5000030B4
:100A2400F4008531DD2584317008FF3E24009200F6
:100A340094010800F900362D7908BF3E8431C8249A
:100A44008531492D7908933E8431C8248531492D57
:100A54007908D33E8431C8248531492D79087F3EF5
:100A64008431C8248531492D7608F700F8017808C7
:100A7400003A03193E2D302D7708023A03191E2D32
:100A8400013A0319242D073A03192A2D302D0800A1
:100A9400F90120003214792D7508F7007408F60066
:100AA40079087607840077080318770A8500000818
:100AB400F0398431642485317508F7007408F60030
:100AC40079087607840077080318770A85000008F8
:100AD400F8000330F835FF3E031D6C2D7835F039EE
:100AE4008431642485310130F6007608F9077508ED
:100AF400F7007408F600790876078400770803186D
:100B0400770A85001200031D882D892D4E2D0800BB
:100B1400F601F31F8E2D8F2D962DF209F309F20A9B
:100B24000319F30AF601F60AF11F992D9A2D9F2D48
:100B3400F009F109F00A0319F10A700871040319A4
:100B4400A42DA52DCE2DF501F50AB12D0130F035DA
:100B5400F10D890BA92D0130F4007408F507F11F7C
:100B6400B42DB52DA82D71087302031DBB2D70087B
:100B74007202031CBE2DBF2DC32D7008F202710832
:100B8400F33B0130F136F00C890BC42D0130F50232
:100B9400031DCD2DCE2DB52D76080319D22DD32DC1
:100BA400D82DF209F309F20A0319F30A7308F100C4
:100BB4007208F00008000030FC000030FB00003038
:100BC400FA000030F9007308720471047004031908
:100BD400EC2DED2D2E2EFD01FD0AFB2D0130F035FF
:100BE400F10DF20DF30D890BF12D0130F8007808A9
:100BF400FD07F31FFE2DFF2DF02D0130F935FA0D01
:100C0400FB0DFC0D890B002E73087702031D142EB7
:100C140072087602031D142E71087502031D142E2A
:100C240070087402031C172E182E212E7008F4026B
:100C34007108F53B7208F63B7308F73B79140130F1
:100C4400F336F20CF10CF00C890B222E0130FD026C
:100C5400031D2D2E2E2EFF2D7C08F3007B08F200A1
:100C64007A08F1007908F0000800F601F11F3B2E24
:100C74003C2E432EF009F109F00A0319F10AF6019A
:100C8400F60AF31F462E472E502EF209F309F20AF4
:100C94000319F30A0130F4007408F606F701F801A9
:100CA400700871040319572E582E872EF501F50A82
:100CB400642E0130F035F10D890B5C2E0130F40007
:100CC4007408F507F11F672E682E5B2E0130F73587
:100CD400F80D890B692E71087302031D732E7008B9
:100CE4007202031C762E772E7C2E7008F202710895
:100CF400F33B77140130F136F00C890B7D2E013073
:100D0400F502031D862E872E682E760803198B2E76
:100D14008C2E912EF709F809F70A0319F80A7808B6
:100D2400F1007708F0000800F7007708F60076086D
:100D34002000B10000308431512486316830F6003F
:100D4400E430890BA32EF60BA32E0032033084313A
:100D5400C82486310D30F600FC30890BAF2EF60B1B
:100D6400AF2E03308431C82486310D30F600FC30B8
:100D7400890BBA2EF60BBA2E03308431C82486317F
:100D84000D30F600FC30890BC52EF60BC52E023053
:100D94008431C82486310D30F600FC30890BD02E06
:100DA400F60BD02E28308431C82486318230F600E8
:100DB400DE30890BDB2EF60BDB2E0C308431C8249D
:100DC40086318230F600DE30890BE62EF60BE62EF5
:100DD40001308431C82486318230F600DE30890B3C
:100DE400F12EF60BF12E06308431C8248631823080
:100DF400F600DE30890BFC2EF60BFC2E080070305A
:100E04002100990000302000A3000130A2008630A8
:100E1400A100A030A0008431F02487314E30863107
:100E24009626873163302000AD000030AE002000EC
:100E34002E08803AA80080302802031D232F023098
:100E44002D02031C262F272F812FF601F60A0130CD
:100E540085311C25873120002E08B0002D08AF00F5
:100E64000A30F0000030F1003008F3002F08F200DF
:100E740085318A2587317008303E2000A800280873
:100E8400AB000A30F0000030F1003008F3002F0806
:100E9400F20086313726873171082000B0007008CF
:100EA400AF000A30F0000030F1003008F3002F08E2
:100EB400F20085318A2587317008303E2000A80071
:100EC4002808AA002A30F4000030F50085314A25AC
:100ED400873102302000A8002808F600013085314F
:100EE4001C2587312F30F4008430F50085314A25E4
:100EF4008731FF302000AD07FF30AE3DEA2FF60109
:100F0400F60A013085311C258731F330F400833033
:100F1400F50085314A25873102302000A8002808D1
:100F2400F600013085311C2587311F30F4008430F0
:100F3400F50085314A258731F601F60A01308531FD
:100F44001C258731A430F4008430F50085314A250E
:100F5400873102302000A8002808F60001308531CE
:100F64001C2587318230F4008430F50085314A2510
:100F7400873163302000AD000030AE001030200017
:100F8400A9003930A8000D30890BC62FA80BC62F35
:100F9400A90BC62F0032F601F60A013085311C2553
:100FA40087314030F4008430F50085314A2587319B
:100FB40002302000A8002808F600013085311C25E5
:100FC40087314030F4008430F50085314A2587317B
:100FD40006302000A9001330A800AD30890BF02F93
:100FE400A80BF02FA90BF02F0032192F0128833101
:0C0FF400F2238731B300B2012000012F6E
:020000040001F9
:04000E0084FFFFDE8E
:00000001FF
