:020000040000FA
:040000000128F92FAB
:100A32000834423432342034543445345334543438
:100A42000034423431342034543445345334543431
:100A5200003442345534543454344F344E342034F8
:100A620054344534533454340034240014193A2D88
:100A72003B2D362D16081F39031D402D412D362DD5
:100A82001614080024001419472D482D432D16086A
:100A92001F39031D4D2D4E2D432D16150800F00054
:100AA20024001419552D562D512D16081F39031DDA
:100AB2005B2D5C2D512D70089100080020342034EC
:100AC2002034203420342034203420342034433461
:100AD2006F3475346E3474343A3430340034F10087
:100AE20085313625853120002E0885315025853106
:100AF2007108200030048531502585318531432528
:100B020085310800F50020002F147508F039853171
:100B1200982585317508F4000330F435FF3E031D36
:100B22008E2D7435F0398531982585310800F30012
:100B3200003020002F180130F2007208F30473080D
:100B4200FB398531702585310032730804388531CF
:100B52007025853100327308FB3985317025853166
:100B62004230890BB22D00320800F101F20120005F
:100B72008C1EBC2DBD2DBD2D0130F0007008F1077B
:100B82001A30F000F830890BC42DF00BC42D00325E
:100B92000130F0007008F20705307202031CD22DFA
:100BA200D32DB82D03307102031CD82DD92DDB2D86
:100BB2000314DC2D03100800F50020002F10750827
:100BC200F0398531982585317508F4000330F43504
:100BD200FF3E031DE82D7435F039853198258531A6
:100BE20075030319F52DF62DFC2D02307506031D34
:100BF200FB2DFC2D042E0630F4003030890BFF2D26
:100C0200F40BFF2D0032080028302400950020004C
:100C12002008A4002108A5002208A6002308A70096
:100C22000230A435A50DA60DA70D890B122E27089B
:100C3200F3002608F2002508F1002408F000003035
:100C4200F7007A30F6001230F5000030F4008631F9
:100C52009F2686317008FF3E24009200940108000E
:100C6200F9004B2E7908BF3E8531DD2586315E2E97
:100C72007908933E8531DD2586315E2E7908D33E93
:100C82008531DD2586315E2E79087F3E8531DD2571
:100C920086315E2E7608F700F8017808003A0319CB
:100CA200532E452E7708023A0319332E013A0319BF
:100CB200392E073A03193F2E452E0800F90120006C
:100CC2002F148E2E7508F7007408F600790876073F
:100CD200840077080318770A85000008F039853107
:100CE200982586317508F7007408F60079087607AA
:100CF200840077080318770A85000008F80003309B
:100D0200F835FF3E031D812E7835F039853198255F
:100D120086310130F6007608F9077508F700740885
:100D2200F60079087607840077080318770A8500A9
:100D32001200031D9D2E9E2E632E08000030FC0023
:100D42000030FB000030FA000030F9007308720432
:100D5200710470040319AE2EAF2EF02EFD01FD0AB0
:100D6200BD2E0130F035F10DF20DF30D890BB32ECE
:100D72000130F8007808FD07F31FC02EC12EB22EF5
:100D82000130F935FA0DFB0DFC0D890BC22E7308EB
:100D92007702031DD62E72087602031DD62E710825
:100DA2007502031DD62E70087402031CD92EDA2E8A
:100DB200E32E7008F4027108F53B7208F63B7308E3
:100DC200F73B79140130F336F20CF10CF00C890B7D
:100DD200E42E0130FD02031DEF2EF02EC12E7C0801
:100DE200F3007B08F2007A08F1007908F0000800AD
:100DF200F7007708F60076082000AE000030853153
:100E0200702586316830F600E430890B062FF60B28
:100E1200062F003203308531DD2586310D30F60094
:100E2200FC30890B122FF60B122F03308531DD2592
:100E320086310D30F600FC30890B1D2FF60B1D2F6D
:100E420003308531DD2586310D30F600FC30890B0B
:100E5200282FF60B282F02308531DD2586310D3003
:100E6200F600FC30890B332FF60B332F28308531F7
:100E7200DD2586318230F600DE30890B3E2FF60BFF
:100E82003E2F0C308531DD2586318230F600DE3092
:100E9200890B492FF60B492F01308531DD2586312B
:100EA2008230F600DE30890B542FF60B542F0630B9
:100EB2008531DD2586318230F600DE30890B5F2FE9
:100EC200F60B5F2F080070302100990023008C017F
:100ED20021009513303024008C0000302000A30044
:100EE2000130A2008630A100A030A0008631052684
:100EF20087314E308631F9268731F601F60A013004
:100F02008631312687312A30F4008530F50086316A
:100F12005F26873102302000AC002C08F600013039
:100F22008631312687315F30F4008530F500863115
:100F32005F2687312000AD0120008C1AA12FA22F3D
:100F4200CB2F8531B6258731031CA82FA92FCB2F94
:100F520002302000AC002C08F60001308631312628
:100F620087312230F4008530F50086315F268731E3
:100F720001302000AC002C08AD070230AC002C0878
:100F8200F600103086313126873120002D08853158
:100F92008325873120000C1ACF2FD02F9D2F85312A
:100FA200B6258731031CD62FD72F9D2F0230200064
:100FB200AC002C08F60001308631312687311A3018
:100FC200F4008530F50086315F268731013020003C
:100FD200AD020230AC002C08F6001030863131260A
:100FE200873120002D088531832587319D2F0128E7
:0E0FF200853119258731B000AF012000642F32
:020000040001F9
:04000E0084FFFFDE8E
:00000001FF
