:020000040000FA
:040000000128F42FB0
:10098C00083424001419CB2CCC2CC72C16081F3976
:10099C00031DD12CD22CC72C1614080024001419BA
:1009AC00D82CD92CD42C16081F39031DDE2CDF2C87
:1009BC00D42C16150800483465346C346C346F3400
:1009CC002C34203477346F3472346C3464342134E6
:1009DC000034F00024001419F42CF52CF02C16081B
:1009EC001F39031DFA2CFB2CF02C70089100080009
:1009FC00F1008431C7248431200030088431EF2485
:100A0C0084317108200032048431EF248431843124
:100A1C00D42484310800F300003020003118013058
:100A2C00F2007208F3047308FB398431FE2485311B
:100A3C000032730804388431FE2485310032730887
:100A4C00FB398431FE2485314230890B2B2D003249
:100A5C000800F500200031107508F039853111259A
:100A6C0085317508F4000330F435FF3E031D3A2D33
:100A7C007435F03985311125853175030319472DEE
:100A8C00482D4E2D02307506031D4D2D4E2D562D25
:100A9C000630F4003030890B512DF40B512D0032FF
:100AAC00080028302400950020002008A40021080C
:100ABC00A5002208A6002308A7000230A435A50D26
:100ACC00A60DA70D890B642D2708F3002608F2004C
:100ADC002508F1002408F0000030F7007A30F60009
:100AEC001230F5000030F40086314526853170084F
:100AFC00FF3E2400920094010800F9009D2D790816
:100B0C00BF3E85312F258531B02D7908933E853137
:100B1C002F258531B02D7908D33E85312F25853190
:100B2C00B02D79087F3E85312F258531B02D760883
:100B3C00F700F8017808003A0319A52D972D7708CE
:100B4C00023A0319852D013A03198B2D073A031923
:100B5C00912D972D0800F90120003114E02D750816
:100B6C00F7007408F60079087607840077080318F4
:100B7C00770A85000008F039853111258531750813
:100B8C00F7007408F60079087607840077080318D4
:100B9C00770A85000008F8000330F835FF3E031D86
:100BAC00D32D7835F0398531112585310130F6009A
:100BBC007608F9077508F7007408F60079087607C7
:100BCC00840077080318770A85001200031DEF2DA7
:100BDC00F02DB52D08002000A101FC1FF62DF72DDE
:100BEC00FE2DFB09FC09FB0A0319FC0AA101A10A51
:100BFC00FA1F012E022E072EF909FA09F90A031918
:100C0C00FA0A79087A0403190C2E0D2E362EA0013F
:100C1C00A00A192E0130F935FA0D890B112E01306D
:100C2C00FD007D08A007FA1F1C2E1D2E102E7A0821
:100C3C007C02031D232E79087B02031C262E272EF3
:100C4C002B2E7908FB027A08FC3B0130FA36F90CA2
:100C5C00890B2C2E0130A002031D352E362E1D2E95
:100C6C00210803193A2E3B2E402EFB09FC09FB0AE6
:100C7C000319FC0A7C08FA007B08F9000800003014
:100C8C00FC000030FB000030FA000030F900730863
:100C9C007204710470040319542E552E962EFD0106
:100CAC00FD0A632E0130F035F10DF20DF30D890BB9
:100CBC00592E0130F8007808FD07F31F662E672EB9
:100CCC00582E0130F935FA0DFB0DFC0D890B682EF1
:100CDC0073087702031D7C2E72087602031D7C2E8E
:100CEC0071087502031D7C2E70087402031C7F2E84
:100CFC00802E892E7008F4027108F53B7208F63BC1
:100D0C007308F73B79140130F336F20CF10CF00C4C
:100D1C00890B8A2E0130FD02031D952E962E672E0F
:100D2C007C08F3007B08F2007A08F1007908F000E7
:100D3C000800F601F11FA32EA42EAB2EF009F10929
:100D4C00F00A0319F10AF601F60AF31FAE2EAF2EC4
:100D5C00B82EF209F309F20A0319F30A0130F40070
:100D6C007408F606F701F801700871040319BF2E18
:100D7C00C02EEF2EF501F50ACC2E0130F035F10D19
:100D8C00890BC42E0130F4007408F507F11FCF2E27
:100D9C00D02EC32E0130F735F80D890BD12E7108EA
:100DAC007302031DDB2E70087202031CDE2EDF2E75
:100DBC00E42E7008F2027108F33B77140130F1361F
:100DCC00F00C890BE52E0130F502031DEE2EEF2EF3
:100DDC00D02E76080319F32EF42EF92EF709F80904
:100DEC00F70A0319F80A7808F1007708F0000800F0
:100DFC00F7007708F60076082000B0000030843148
:100E0C00FE2486316830F600E430890B0B2FF60B8C
:100E1C000B2F0032033085312F2586310D30F60033
:100E2C00FC30890B172FF60B172F033085312F252C
:100E3C0086310D30F600FC30890B222FF60B222F59
:100E4C00033085312F2586310D30F600FC30890BAF
:100E5C002D2FF60B2D2F023085312F2586310D309D
:100E6C00F600FC30890B382FF60B382F28308531E3
:100E7C002F2586318230F600DE30890B432FF60B9E
:100E8C00432F0C3085312F2586318230F600DE3031
:100E9C00890B4E2FF60B4E2F013085312F258631C5
:100EAC008230F600DE30890B592FF60B592F0630A5
:100EBC0085312F2586318230F600DE30890B642F88
:100ECC00F60B642F080070302100990000302000D0
:100EDC00A3000130A2008630A100A030A000853113
:100EEC00572587314E308631FE268731F601F60ABA
:100EFC000230853183258731E130F4008430F500F0
:100F0C008531B12587316430F0000030F1002000CC
:100F1C002B08A800A9012808F2002908F300863143
:100F2C009F2687317008303E2000AA002A08AC00AA
:100F3C000A30F9000030FA000A30F0000030F100FD
:100F4C002B08A800A9012808F2002908F300863113
:100F5C009F2687317108FC007008FB008531F12554
:100F6C0087317908303E2000AA002A08AD000A30EB
:100F7C00F9000030FA002B08A800A9012808FB0092
:100F8C002908FC008531F12587317908303E200095
:100F9C00AA002A08AE000230A8002808F600073084
:100FAC008531832587312C30F4000030F5008531F4
:100FBC00B125873101302000A8002808AB07063086
:100FCC002000A9001330A800AD30890BEB2FA80B23
:100FDC00EB2FA90BEB2F0032892F01288431C6246B
:100FEC008731B200B101AB01AC01AD01AE01AF0173
:040FFC002000692F39
:020000040001F9
:04000E0084FFFFDE8E
:00000001FF
